{
  "_format": "hh-sol-artifact-1",
  "contractName": "NFTEX",
  "sourceName": "contracts/NFTEX.sol",
  "abi": [
    {
      "inputs": [
        {
          "internalType": "address",
          "name": "tokenERC20",
          "type": "address"
        },
        {
          "internalType": "uint16",
          "name": "_feePercent",
          "type": "uint16"
        }
      ],
      "stateMutability": "nonpayable",
      "type": "constructor"
    },
    {
      "anonymous": false,
      "inputs": [
        {
          "indexed": true,
          "internalType": "contract IERC721Metadata",
          "name": "token",
          "type": "address"
        },
        {
          "indexed": false,
          "internalType": "uint256",
          "name": "id",
          "type": "uint256"
        },
        {
          "indexed": true,
          "internalType": "bytes32",
          "name": "hash",
          "type": "bytes32"
        },
        {
          "indexed": false,
          "internalType": "address",
          "name": "bidder",
          "type": "address"
        },
        {
          "indexed": false,
          "internalType": "uint256",
          "name": "bidPrice",
          "type": "uint256"
        },
        {
          "indexed": false,
          "internalType": "string",
          "name": "uri",
          "type": "string"
        }
      ],
      "name": "Bid",
      "type": "event"
    },
    {
      "anonymous": false,
      "inputs": [
        {
          "indexed": true,
          "internalType": "contract IERC721Metadata",
          "name": "token",
          "type": "address"
        },
        {
          "indexed": false,
          "internalType": "uint256",
          "name": "id",
          "type": "uint256"
        },
        {
          "indexed": true,
          "internalType": "bytes32",
          "name": "hash",
          "type": "bytes32"
        },
        {
          "indexed": false,
          "internalType": "address",
          "name": "seller",
          "type": "address"
        },
        {
          "indexed": false,
          "internalType": "string",
          "name": "uri",
          "type": "string"
        }
      ],
      "name": "CancelOrder",
      "type": "event"
    },
    {
      "anonymous": false,
      "inputs": [
        {
          "indexed": true,
          "internalType": "contract IERC721Metadata",
          "name": "token",
          "type": "address"
        },
        {
          "indexed": false,
          "internalType": "uint256",
          "name": "id",
          "type": "uint256"
        },
        {
          "indexed": true,
          "internalType": "bytes32",
          "name": "hash",
          "type": "bytes32"
        },
        {
          "indexed": false,
          "internalType": "address",
          "name": "seller",
          "type": "address"
        },
        {
          "indexed": false,
          "internalType": "address",
          "name": "taker",
          "type": "address"
        },
        {
          "indexed": false,
          "internalType": "uint256",
          "name": "price",
          "type": "uint256"
        },
        {
          "indexed": false,
          "internalType": "string",
          "name": "uri",
          "type": "string"
        }
      ],
      "name": "Claim",
      "type": "event"
    },
    {
      "anonymous": false,
      "inputs": [
        {
          "indexed": false,
          "internalType": "address",
          "name": "operator",
          "type": "address"
        },
        {
          "indexed": false,
          "internalType": "address",
          "name": "from",
          "type": "address"
        },
        {
          "indexed": false,
          "internalType": "uint256",
          "name": "tokenId",
          "type": "uint256"
        },
        {
          "indexed": false,
          "internalType": "contract IERC721Metadata",
          "name": "nft",
          "type": "address"
        }
      ],
      "name": "GiveReward",
      "type": "event"
    },
    {
      "anonymous": false,
      "inputs": [
        {
          "indexed": true,
          "internalType": "contract IERC721Metadata",
          "name": "token",
          "type": "address"
        },
        {
          "indexed": false,
          "internalType": "uint256",
          "name": "id",
          "type": "uint256"
        },
        {
          "indexed": true,
          "internalType": "bytes32",
          "name": "hash",
          "type": "bytes32"
        },
        {
          "indexed": false,
          "internalType": "address",
          "name": "seller",
          "type": "address"
        },
        {
          "indexed": false,
          "internalType": "string",
          "name": "uri",
          "type": "string"
        },
        {
          "indexed": false,
          "internalType": "uint256",
          "name": "timestamp",
          "type": "uint256"
        },
        {
          "indexed": false,
          "internalType": "uint256",
          "name": "price",
          "type": "uint256"
        }
      ],
      "name": "MakeOrder",
      "type": "event"
    },
    {
      "anonymous": false,
      "inputs": [
        {
          "indexed": true,
          "internalType": "address",
          "name": "previousOwner",
          "type": "address"
        },
        {
          "indexed": true,
          "internalType": "address",
          "name": "newOwner",
          "type": "address"
        }
      ],
      "name": "OwnershipTransferred",
      "type": "event"
    },
    {
      "inputs": [
        {
          "internalType": "bytes32",
          "name": "_order",
          "type": "bytes32"
        }
      ],
      "name": "buyItNow",
      "outputs": [],
      "stateMutability": "payable",
      "type": "function"
    },
    {
      "inputs": [
        {
          "internalType": "bytes32",
          "name": "_order",
          "type": "bytes32"
        }
      ],
      "name": "cancelOrder",
      "outputs": [],
      "stateMutability": "nonpayable",
      "type": "function"
    },
    {
      "inputs": [
        {
          "internalType": "contract IERC721Metadata",
          "name": "_token",
          "type": "address"
        },
        {
          "internalType": "uint256",
          "name": "_id",
          "type": "uint256"
        },
        {
          "internalType": "uint256",
          "name": "_startPrice",
          "type": "uint256"
        },
        {
          "internalType": "uint256",
          "name": "_endPrice",
          "type": "uint256"
        },
        {
          "internalType": "uint256",
          "name": "_endBlock",
          "type": "uint256"
        }
      ],
      "name": "dutchAuction",
      "outputs": [],
      "stateMutability": "nonpayable",
      "type": "function"
    },
    {
      "inputs": [
        {
          "internalType": "contract IERC721Metadata",
          "name": "_token",
          "type": "address"
        },
        {
          "internalType": "uint256",
          "name": "_id",
          "type": "uint256"
        },
        {
          "internalType": "uint256",
          "name": "_startPrice",
          "type": "uint256"
        },
        {
          "internalType": "uint256",
          "name": "_endBlock",
          "type": "uint256"
        }
      ],
      "name": "englishAuction",
      "outputs": [],
      "stateMutability": "nonpayable",
      "type": "function"
    },
    {
      "inputs": [],
      "name": "feeAddress",
      "outputs": [
        {
          "internalType": "address",
          "name": "",
          "type": "address"
        }
      ],
      "stateMutability": "view",
      "type": "function"
    },
    {
      "inputs": [],
      "name": "feePercent",
      "outputs": [
        {
          "internalType": "uint16",
          "name": "",
          "type": "uint16"
        }
      ],
      "stateMutability": "view",
      "type": "function"
    },
    {
      "inputs": [
        {
          "internalType": "contract IERC721Metadata",
          "name": "_token",
          "type": "address"
        },
        {
          "internalType": "uint256",
          "name": "_id",
          "type": "uint256"
        },
        {
          "internalType": "uint256",
          "name": "_price",
          "type": "uint256"
        },
        {
          "internalType": "uint256",
          "name": "_endTimestamp",
          "type": "uint256"
        }
      ],
      "name": "fixedPrice",
      "outputs": [],
      "stateMutability": "nonpayable",
      "type": "function"
    },
    {
      "inputs": [
        {
          "internalType": "bytes32",
          "name": "_order",
          "type": "bytes32"
        }
      ],
      "name": "getCurrentPrice",
      "outputs": [
        {
          "internalType": "uint256",
          "name": "",
          "type": "uint256"
        }
      ],
      "stateMutability": "view",
      "type": "function"
    },
    {
      "inputs": [],
      "name": "nativeCoin",
      "outputs": [
        {
          "internalType": "contract IERC20",
          "name": "",
          "type": "address"
        }
      ],
      "stateMutability": "view",
      "type": "function"
    },
    {
      "inputs": [
        {
          "internalType": "address",
          "name": "",
          "type": "address"
        },
        {
          "internalType": "address",
          "name": "",
          "type": "address"
        },
        {
          "internalType": "uint256",
          "name": "",
          "type": "uint256"
        },
        {
          "internalType": "bytes",
          "name": "",
          "type": "bytes"
        }
      ],
      "name": "onERC721Received",
      "outputs": [
        {
          "internalType": "bytes4",
          "name": "",
          "type": "bytes4"
        }
      ],
      "stateMutability": "nonpayable",
      "type": "function"
    },
    {
      "inputs": [
        {
          "internalType": "address",
          "name": "",
          "type": "address"
        },
        {
          "internalType": "uint256",
          "name": "",
          "type": "uint256"
        }
      ],
      "name": "orderIdBySeller",
      "outputs": [
        {
          "internalType": "bytes32",
          "name": "",
          "type": "bytes32"
        }
      ],
      "stateMutability": "view",
      "type": "function"
    },
    {
      "inputs": [
        {
          "internalType": "contract IERC721Metadata",
          "name": "",
          "type": "address"
        },
        {
          "internalType": "uint256",
          "name": "",
          "type": "uint256"
        },
        {
          "internalType": "uint256",
          "name": "",
          "type": "uint256"
        }
      ],
      "name": "orderIdByToken",
      "outputs": [
        {
          "internalType": "bytes32",
          "name": "",
          "type": "bytes32"
        }
      ],
      "stateMutability": "view",
      "type": "function"
    },
    {
      "inputs": [
        {
          "internalType": "bytes32",
          "name": "",
          "type": "bytes32"
        }
      ],
      "name": "orderInfo",
      "outputs": [
        {
          "internalType": "enum NFTEX.OrderType",
          "name": "orderType",
          "type": "uint8"
        },
        {
          "internalType": "address",
          "name": "seller",
          "type": "address"
        },
        {
          "internalType": "contract IERC721Metadata",
          "name": "token",
          "type": "address"
        },
        {
          "internalType": "uint256",
          "name": "tokenId",
          "type": "uint256"
        },
        {
          "internalType": "uint256",
          "name": "startPrice",
          "type": "uint256"
        },
        {
          "internalType": "uint256",
          "name": "endPrice",
          "type": "uint256"
        },
        {
          "internalType": "uint256",
          "name": "startBlock",
          "type": "uint256"
        },
        {
          "internalType": "uint256",
          "name": "endBlock",
          "type": "uint256"
        },
        {
          "internalType": "uint256",
          "name": "lastBidPrice",
          "type": "uint256"
        },
        {
          "internalType": "address",
          "name": "lastBidder",
          "type": "address"
        },
        {
          "internalType": "bool",
          "name": "isSold",
          "type": "bool"
        },
        {
          "internalType": "address",
          "name": "creator",
          "type": "address"
        },
        {
          "internalType": "uint256",
          "name": "royaltyFeePercent",
          "type": "uint256"
        }
      ],
      "stateMutability": "view",
      "type": "function"
    },
    {
      "inputs": [],
      "name": "owner",
      "outputs": [
        {
          "internalType": "address",
          "name": "",
          "type": "address"
        }
      ],
      "stateMutability": "view",
      "type": "function"
    },
    {
      "inputs": [],
      "name": "renounceOwnership",
      "outputs": [],
      "stateMutability": "nonpayable",
      "type": "function"
    },
    {
      "inputs": [
        {
          "internalType": "address",
          "name": "_seller",
          "type": "address"
        }
      ],
      "name": "sellerOrderLength",
      "outputs": [
        {
          "internalType": "uint256",
          "name": "",
          "type": "uint256"
        }
      ],
      "stateMutability": "view",
      "type": "function"
    },
    {
      "inputs": [
        {
          "internalType": "address",
          "name": "_feeAddress",
          "type": "address"
        }
      ],
      "name": "setFeeAddress",
      "outputs": [],
      "stateMutability": "nonpayable",
      "type": "function"
    },
    {
      "inputs": [
        {
          "internalType": "uint16",
          "name": "_percent",
          "type": "uint16"
        }
      ],
      "name": "setFeePercent",
      "outputs": [],
      "stateMutability": "nonpayable",
      "type": "function"
    },
    {
      "inputs": [
        {
          "internalType": "address",
          "name": "newOwner",
          "type": "address"
        }
      ],
      "name": "transferOwnership",
      "outputs": [],
      "stateMutability": "nonpayable",
      "type": "function"
    }
  ],
  "bytecode": "0x60806040523480156200001157600080fd5b506040516200201138038062002011833981016040819052620000349162000124565b600080546001600160a01b031916339081178255604051909182917f8be0079c531659141344cd1fd0a4f28419497f9722a3daafe3b4186f6b6457e0908290a3506127108161ffff161115620000d05760405162461bcd60e51b815260206004820152601d60248201527f696e7075742076616c7565206973206d6f7265207468616e2031303025000000604482015260640160405180910390fd5b600480546001600160b01b0319163361ffff60a01b191617600160a01b61ffff9390931692909202919091179055600580546001600160a01b0319166001600160a01b039290921691909117905562000174565b600080604083850312156200013857600080fd5b82516001600160a01b03811681146200015057600080fd5b602084015190925061ffff811681146200016957600080fd5b809150509250929050565b611e8d80620001846000396000f3fe6080604052600436106100e45760003560e01c80630402f196146100e957806308745c981461010b578063093dff7d1461013e578063150b7a021461015e578063161e444e146101a2578063167b78cd146101c2578063238e203f146101ef578063275e086c1461029a57806341275358146102ba578063715018a6146102da5780637489ec23146102ef5780637fd6f15c1461030f5780638035eb5c146103445780638705fcd4146103645780638aae982a146103845780638ba39adb146103ba5780638da5cb5b146103cd578063f2fde38b146103e2578063f4dae74c14610402575b600080fd5b3480156100f557600080fd5b50610109610104366004611aac565b610422565b005b34801561011757600080fd5b5061012b610126366004611924565b6104d2565b6040519081526020015b60405180910390f35b34801561014a57600080fd5b506101096101593660046119fb565b610503565b34801561016a57600080fd5b50610189610179366004611876565b630a85bd0160e11b949350505050565b6040516001600160e01b03199091168152602001610135565b3480156101ae57600080fd5b5061012b6101bd366004611972565b61057b565b3480156101ce57600080fd5b506005546101e2906001600160a01b031681565b6040516101359190611b3e565b3480156101fb57600080fd5b5061028161020a366004611972565b600360208190526000918252604090912080546001820154600283015493830154600484015460058501546006860154600787015460088801546009890154600a9099015460ff808a169b6001600160a01b03610100909b048b169b998b169a909984821694600160a01b9004909216929116908d565b6040516101359d9c9b9a99989796959493929190611b76565b3480156102a657600080fd5b5061012b6102b536600461198b565b61064e565b3480156102c657600080fd5b506004546101e2906001600160a01b031681565b3480156102e657600080fd5b5061010961068c565b3480156102fb57600080fd5b5061010961030a366004611972565b6106f3565b34801561031b57600080fd5b5060045461033190600160a01b900461ffff1681565b60405161ffff9091168152602001610135565b34801561035057600080fd5b5061010961035f3660046119c0565b610920565b34801561037057600080fd5b5061010961037f36600461183c565b610936565b34801561039057600080fd5b5061012b61039f36600461183c565b6001600160a01b031660009081526002602052604090205490565b6101096103c8366004611972565b610987565b3480156103d957600080fd5b506101e2610f20565b3480156103ee57600080fd5b506101096103fd36600461183c565b610f2f565b34801561040e57600080fd5b5061010961041d3660046119c0565b61100c565b3361042b610f20565b6001600160a01b03161461045a5760405162461bcd60e51b815260040161045190611c2c565b60405180910390fd5b6127108161ffff1611156104b05760405162461bcd60e51b815260206004820152601d60248201527f696e7075742076616c7565206973206d6f7265207468616e20313030250000006044820152606401610451565b6004805461ffff909216600160a01b0261ffff60a01b19909216919091179055565b600260205281600052604060002081815481106104ee57600080fd5b90600052602060002001600091509150505481565b8183116105655760405162461bcd60e51b815260206004820152602a60248201527f456e642070726963652073686f756c64206265206c6f776572207468616e20736044820152697461727420707269636560b01b6064820152608401610451565b61057460018686868686611018565b5050505050565b6000818152600360205260408120805460ff16828160028111156105a1576105a1611df3565b14156105b257506003015492915050565b60028160028111156105c6576105c6611df3565b14156105ec57600782015480156105dd57806105e3565b82600301545b95945050505050565b600382015460058301546006840154600090610609908390611d9a565b60048601546106189085611d9a565b6106229190611d59565b90508061062f8343611d9a565b6106399190611d7b565b6106439084611d9a565b979650505050505050565b6001602052826000526040600020602052816000526040600020818154811061067657600080fd5b9060005260206000200160009250925050505481565b33610695610f20565b6001600160a01b0316146106bb5760405162461bcd60e51b815260040161045190611c2c565b600080546040516001600160a01b0390911690600080516020611e38833981519152908390a3600080546001600160a01b0319169055565b6000818152600360205260409020805461010090046001600160a01b0316331461074f5760405162461bcd60e51b815260206004820152600d60248201526c1058d8d95cdcc819195b9a5959609a1b6044820152606401610451565b6007810154156107915760405162461bcd60e51b815260206004820152600d60248201526c109a59191a5b99c8195e1a5cdd609a1b6044820152606401610451565b6008810154600160a01b900460ff16156107dc5760405162461bcd60e51b815260206004820152600c60248201526b105b1c9958591e481cdbdb1960a21b6044820152606401610451565b6001810154600282015460006006840181905560405163c87b56dd60e01b8152600481018390526001600160a01b0390931692839063c87b56dd9060240160006040518083038186803b15801561083257600080fd5b505afa158015610846573d6000803e3d6000fd5b505050506040513d6000823e601f3d908101601f1916820160405261086e9190810190611a3f565b604051632142170760e11b81529091506001600160a01b038416906342842e0e906108a190309033908790600401611b52565b600060405180830381600087803b1580156108bb57600080fd5b505af11580156108cf573d6000803e3d6000fd5b5050505084836001600160a01b03167fea75cc2422fd6c7ff84e7b291bb7cb90c76e23fd1bd8b168003f5fe05d87bc6b84338560405161091193929190611c9a565b60405180910390a35050505050565b6109306000858585600086611018565b50505050565b3361093f610f20565b6001600160a01b0316146109655760405162461bcd60e51b815260040161045190611c2c565b600480546001600160a01b0319166001600160a01b0392909216919091179055565b60008181526003602052604090206006810154806109d95760405162461bcd60e51b815260206004820152600f60248201526e13dc99195c881a185cc8195b991959608a1b6044820152606401610451565b428111610a1e5760405162461bcd60e51b81526020600482015260136024820152722a34b6b2903634b6b4ba1034ba399037bb32b960691b6044820152606401610451565b6000825460ff166002811115610a3657610a36611df3565b14610a995760405162461bcd60e51b815260206004820152602d60248201527f496e76616c6964206f7264657220747970652c20497473206e6f74206120666960448201526c3c10383934b1b29037b93232b960991b6064820152608401610451565b6008820154600160a01b900460ff1615610aed5760405162461bcd60e51b815260206004820152601560248201527412185cc8185b1c9958591e481899595b881cdbdb19605a1b6044820152606401610451565b6000610af88461057b565b600884018054600160a01b60ff60a01b19909116811790915560045491925060009161271091610b2d910461ffff1684611d7b565b610b379190611d59565b9050600061271085600a015484610b4e9190611d7b565b610b589190611d59565b6005546040516370a0823160e01b81529192506000916001600160a01b03909116906370a0823190610b8e903390600401611b3e565b60206040518083038186803b158015610ba657600080fd5b505afa158015610bba573d6000803e3d6000fd5b505050506040513d601f19601f82011682018060405250810190610bde9190611ad0565b9050600083610bed8487611d9a565b610bf79190611d9a565b8754600989015491925061010090046001600160a01b0390811691161415610c2a5760009250610c278486611d9a565b90505b84821015610c765760405162461bcd60e51b815260206004820152601960248201527853656e6465722062616c616e636520697320746f6f206c6f7760381b6044820152606401610451565b600554604051636eb1769f60e11b815233600482015230602482015286916001600160a01b03169063dd62ed3e9060440160206040518083038186803b158015610cbf57600080fd5b505afa158015610cd3573d6000803e3d6000fd5b505050506040513d601f19601f82011682018060405250810190610cf79190611ad0565b1015610d3b5760405162461bcd60e51b815260206004820152601360248201527210985b185b98d9481b9bdd08185b1b1bddd959606a1b6044820152606401610451565b600554610d53906001600160a01b0316333088611524565b600454600554610d70916001600160a01b0391821691168661157c565b865460098801546001600160a01b039081166101009092041614610dad576009870154600554610dad916001600160a01b0391821691168561157c565b8654600554610dcf916001600160a01b0391821691610100909104168361157c565b60018701546002880154604051632142170760e11b81526001600160a01b03909216916342842e0e91610e089130913391600401611b52565b600060405180830381600087803b158015610e2257600080fd5b505af1158015610e36573d6000803e3d6000fd5b50505060018801546002890154895460405163c87b56dd60e01b81528c94506001600160a01b03938416937f0be430b471a0455602bfefbcbe1a79021426e95b4225a646a9113b929e71047093926101009004169033908b90869063c87b56dd90610ea990879060040190815260200190565b60006040518083038186803b158015610ec157600080fd5b505afa158015610ed5573d6000803e3d6000fd5b505050506040513d6000823e601f3d908101601f19168201604052610efd9190810190611a3f565b604051610f0e959493929190611c61565b60405180910390a35050505050505050565b6000546001600160a01b031690565b33610f38610f20565b6001600160a01b031614610f5e5760405162461bcd60e51b815260040161045190611c2c565b6001600160a01b038116610fc35760405162461bcd60e51b815260206004820152602660248201527f4f776e61626c653a206e6577206f776e657220697320746865207a65726f206160448201526564647265737360d01b6064820152608401610451565b600080546040516001600160a01b0380851693921691600080516020611e3883398151915291a3600080546001600160a01b0319166001600160a01b0392909216919091179055565b61093060028585856000865b4281116110675760405162461bcd60e51b815260206004820152601f60248201527f4475726174696f6e206d757374206265206d6f7265207468616e207a65726f006044820152606401610451565b600083116110b65760405162461bcd60e51b815260206004820152601c60248201527b5072696365206d757374206265206d6f7265207468616e207a65726f60201b6044820152606401610451565b60006110c38686336115b1565b604051636a4731c560e11b8152600481018790529091506000906001600160a01b0388169063d48e638a9060240160206040518083038186803b15801561110957600080fd5b505afa15801561111d573d6000803e3d6000fd5b505050506040513d601f19601f820116820180604052508101906111419190611859565b604051639e4c014160e01b8152600481018890529091506000906001600160a01b03891690639e4c01419060240160206040518083038186803b15801561118757600080fd5b505afa15801561119b573d6000803e3d6000fd5b505050506040513d601f19601f820116820180604052508101906111bf9190611ad0565b9050604051806101a001604052808a60028111156111df576111df611df3565b8152336020808301919091526001600160a01b038b8116604080850191909152606084018c9052608084018b905260a084018a90524260c085015260e08401899052600061010085018190526101208501819052610140850181905291871661016085015261018090930185905286815260039091522081518154829060ff1916600183600281111561127457611274611df3565b021790555060208281015182546001600160a01b03918216610100908102610100600160a81b0319909216919091178455604080860151600180870180549286166001600160a01b031993841617905560608801516002808901919091556080890151600389015560a08901516004808a019190915560c08a015160058a015560e08a015160068a01559489015160078901556101208901516008890180546101408c01511515600160a01b026001600160a81b031990911692891692909217919091179055610160890151600989018054918816919094161790925561018090970151600a90960195909555918d1660008181528685528381208e8252855283812080548089018255908252858220018a9055338082529585528381208054978801815581529390932090940187905551632142170760e11b815290926342842e0e926113c892909130918d9101611b52565b600060405180830381600087803b1580156113e257600080fd5b505af11580156113f6573d6000803e3d6000fd5b505060405163c87b56dd60e01b8152600481018a9052600092506001600160a01b038b16915063c87b56dd9060240160006040518083038186803b15801561143d57600080fd5b505afa158015611451573d6000803e3d6000fd5b505050506040513d6000823e601f3d908101601f191682016040526114799190810190611a3f565b905083896001600160a01b03167ff60369678be44371769dc62fca88a04a7e6f03e1d21772a15cc00ace084a1f1f8a33858a8d6040516114bd959493929190611cc4565b60405180910390a3600454604080516001600160a01b0392831681523360208201528082018b9052918b166060830152517fc1680a69f23d8eb80e0b04a9c58f0123c7c80fe01a5da0253702f5280008f6949181900360800190a150505050505050505050565b610930846323b872dd60e01b85858560405160240161154593929190611b52565b60408051601f198184030181529190526020810180516001600160e01b03166001600160e01b031990931692909217909152611602565b6040516001600160a01b0383166024820152604481018290526115ac90849063a9059cbb60e01b90606401611545565b505050565b60408051426020808301919091526001600160601b0319606087811b8216848601526054840187905285901b16607483015282518083036068018152608890920190925280519101205b9392505050565b6000611657826040518060400160405280602081526020017f5361666545524332303a206c6f772d6c6576656c2063616c6c206661696c6564815250856001600160a01b03166116d49092919063ffffffff16565b8051909150156115ac57808060200190518101906116759190611950565b6115ac5760405162461bcd60e51b815260206004820152602a60248201527f5361666545524332303a204552433230206f7065726174696f6e20646964206e6044820152691bdd081cdd58d8d9595960b21b6064820152608401610451565b60606116e384846000856116eb565b949350505050565b60608247101561174c5760405162461bcd60e51b815260206004820152602660248201527f416464726573733a20696e73756666696369656e742062616c616e636520666f6044820152651c8818d85b1b60d21b6064820152608401610451565b843b61179a5760405162461bcd60e51b815260206004820152601d60248201527f416464726573733a2063616c6c20746f206e6f6e2d636f6e74726163740000006044820152606401610451565b600080866001600160a01b031685876040516117b69190611b22565b60006040518083038185875af1925050503d80600081146117f3576040519150601f19603f3d011682016040523d82523d6000602084013e6117f8565b606091505b5091509150610643828286606083156118125750816115fb565b8251156118225782518084602001fd5b8160405162461bcd60e51b81526004016104519190611c19565b60006020828403121561184e57600080fd5b81356115fb81611e1f565b60006020828403121561186b57600080fd5b81516115fb81611e1f565b6000806000806080858703121561188c57600080fd5b843561189781611e1f565b935060208501356118a781611e1f565b92506040850135915060608501356001600160401b038111156118c957600080fd5b8501601f810187136118da57600080fd5b80356118ed6118e882611d32565b611d02565b81815288602083850101111561190257600080fd5b8160208401602083013760006020838301015280935050505092959194509250565b6000806040838503121561193757600080fd5b823561194281611e1f565b946020939093013593505050565b60006020828403121561196257600080fd5b815180151581146115fb57600080fd5b60006020828403121561198457600080fd5b5035919050565b6000806000606084860312156119a057600080fd5b83356119ab81611e1f565b95602085013595506040909401359392505050565b600080600080608085870312156119d657600080fd5b84356119e181611e1f565b966020860135965060408601359560600135945092505050565b600080600080600060a08688031215611a1357600080fd5b8535611a1e81611e1f565b97602087013597506040870135966060810135965060800135945092505050565b600060208284031215611a5157600080fd5b81516001600160401b03811115611a6757600080fd5b8201601f81018413611a7857600080fd5b8051611a866118e882611d32565b818152856020838501011115611a9b57600080fd5b6105e3826020830160208601611db1565b600060208284031215611abe57600080fd5b813561ffff811681146115fb57600080fd5b600060208284031215611ae257600080fd5b5051919050565b6001600160a01b03169052565b60008151808452611b0e816020860160208601611db1565b601f01601f19169290920160200192915050565b60008251611b34818460208701611db1565b9190910192915050565b6001600160a01b0391909116815260200190565b6001600160a01b039384168152919092166020820152604081019190915260600190565b6101a0810160038f10611b9957634e487b7160e01b600052602160045260246000fd5b8e8252611ba9602083018f611ae9565b611bb6604083018e611ae9565b8b60608301528a60808301528960a08301528860c08301528760e083015286610100830152611be9610120830187611ae9565b841515610140830152611c00610160830185611ae9565b826101808301529e9d5050505050505050505050505050565b6020815260006115fb6020830184611af6565b6020808252818101527f4f776e61626c653a2063616c6c6572206973206e6f7420746865206f776e6572604082015260600190565b8581526001600160a01b038581166020830152841660408201526060810183905260a06080820181905260009061064390830184611af6565b8381526001600160a01b03831660208201526060604082018190526000906105e390830184611af6565b8581526001600160a01b038516602082015260a060408201819052600090611cee90830186611af6565b606083019490945250608001529392505050565b604051601f8201601f191681016001600160401b0381118282101715611d2a57611d2a611e09565b604052919050565b60006001600160401b03821115611d4b57611d4b611e09565b50601f01601f191660200190565b600082611d7657634e487b7160e01b600052601260045260246000fd5b500490565b6000816000190483118215151615611d9557611d95611ddd565b500290565b600082821015611dac57611dac611ddd565b500390565b60005b83811015611dcc578181015183820152602001611db4565b838111156109305750506000910152565b634e487b7160e01b600052601160045260246000fd5b634e487b7160e01b600052602160045260246000fd5b634e487b7160e01b600052604160045260246000fd5b6001600160a01b0381168114611e3457600080fd5b5056fe8be0079c531659141344cd1fd0a4f28419497f9722a3daafe3b4186f6b6457e0a264697066735822122005c85407fa90c023887f8ff8debacc1fb303a39d9b3312df490c0916c665be7b64736f6c63430008070033",
  "linkReferences": {},
  "deployedLinkReferences": {}
}